{
  "_format": "hh-sol-artifact-1",
  "contractName": "Chemotronix",
  "sourceName": "contracts/chemotronix.sol",
  "abi": [
    {
      "inputs": [],
      "stateMutability": "nonpayable",
      "type": "constructor"
    },
    {
      "anonymous": false,
      "inputs": [
        {
          "indexed": true,
          "internalType": "address",
          "name": "owner",
          "type": "address"
        },
        {
          "indexed": true,
          "internalType": "address",
          "name": "spender",
          "type": "address"
        },
        {
          "indexed": false,
          "internalType": "uint256",
          "name": "value",
          "type": "uint256"
        }
      ],
      "name": "Approval",
      "type": "event"
    },
    {
      "anonymous": false,
      "inputs": [
        {
          "indexed": true,
          "internalType": "address",
          "name": "from",
          "type": "address"
        },
        {
          "indexed": true,
          "internalType": "address",
          "name": "to",
          "type": "address"
        },
        {
          "indexed": false,
          "internalType": "uint256",
          "name": "value",
          "type": "uint256"
        }
      ],
      "name": "Transfer",
      "type": "event"
    },
    {
      "anonymous": false,
      "inputs": [
        {
          "indexed": false,
          "internalType": "uint256",
          "name": "amount",
          "type": "uint256"
        }
      ],
      "name": "balanceChecked",
      "type": "event"
    },
    {
      "anonymous": false,
      "inputs": [
        {
          "indexed": false,
          "internalType": "uint256",
          "name": "amount",
          "type": "uint256"
        },
        {
          "indexed": true,
          "internalType": "address",
          "name": "admin",
          "type": "address"
        }
      ],
      "name": "fundsWithdrawn",
      "type": "event"
    },
    {
      "anonymous": false,
      "inputs": [
        {
          "indexed": true,
          "internalType": "string",
          "name": "uniqueID",
          "type": "string"
        },
        {
          "indexed": false,
          "internalType": "uint256",
          "name": "registrationTime",
          "type": "uint256"
        },
        {
          "indexed": true,
          "internalType": "address",
          "name": "companyAddress",
          "type": "address"
        }
      ],
      "name": "registration",
      "type": "event"
    },
    {
      "inputs": [],
      "name": "admin",
      "outputs": [
        {
          "internalType": "address payable",
          "name": "",
          "type": "address"
        }
      ],
      "stateMutability": "view",
      "type": "function"
    },
    {
      "inputs": [
        {
          "internalType": "address",
          "name": "owner",
          "type": "address"
        },
        {
          "internalType": "address",
          "name": "spender",
          "type": "address"
        }
      ],
      "name": "allowance",
      "outputs": [
        {
          "internalType": "uint256",
          "name": "",
          "type": "uint256"
        }
      ],
      "stateMutability": "view",
      "type": "function"
    },
    {
      "inputs": [
        {
          "internalType": "address",
          "name": "spender",
          "type": "address"
        },
        {
          "internalType": "uint256",
          "name": "amount",
          "type": "uint256"
        }
      ],
      "name": "approve",
      "outputs": [
        {
          "internalType": "bool",
          "name": "",
          "type": "bool"
        }
      ],
      "stateMutability": "nonpayable",
      "type": "function"
    },
    {
      "inputs": [
        {
          "internalType": "address",
          "name": "account",
          "type": "address"
        }
      ],
      "name": "balanceOf",
      "outputs": [
        {
          "internalType": "uint256",
          "name": "",
          "type": "uint256"
        }
      ],
      "stateMutability": "view",
      "type": "function"
    },
    {
      "inputs": [
        {
          "internalType": "enum Chemotronix.industryTypes",
          "name": "industry",
          "type": "uint8"
        },
        {
          "internalType": "uint256",
          "name": "newSupply",
          "type": "uint256"
        }
      ],
      "name": "changeTokenAllocation",
      "outputs": [],
      "stateMutability": "nonpayable",
      "type": "function"
    },
    {
      "inputs": [],
      "name": "checkContractFundBalance",
      "outputs": [
        {
          "internalType": "uint256",
          "name": "",
          "type": "uint256"
        }
      ],
      "stateMutability": "view",
      "type": "function"
    },
    {
      "inputs": [
        {
          "internalType": "string",
          "name": "uniqueID",
          "type": "string"
        }
      ],
      "name": "checkRegistrationStatus",
      "outputs": [
        {
          "internalType": "enum Chemotronix.subStatus",
          "name": "",
          "type": "uint8"
        }
      ],
      "stateMutability": "view",
      "type": "function"
    },
    {
      "inputs": [
        {
          "internalType": "string",
          "name": "uniqueID",
          "type": "string"
        }
      ],
      "name": "checkTimeForRegistrationDeregistration",
      "outputs": [
        {
          "internalType": "uint256",
          "name": "",
          "type": "uint256"
        }
      ],
      "stateMutability": "view",
      "type": "function"
    },
    {
      "inputs": [
        {
          "internalType": "string",
          "name": "uniqueID",
          "type": "string"
        }
      ],
      "name": "checkTokenBalance",
      "outputs": [
        {
          "internalType": "uint256",
          "name": "",
          "type": "uint256"
        }
      ],
      "stateMutability": "nonpayable",
      "type": "function"
    },
    {
      "inputs": [],
      "name": "decimals",
      "outputs": [
        {
          "internalType": "uint8",
          "name": "",
          "type": "uint8"
        }
      ],
      "stateMutability": "view",
      "type": "function"
    },
    {
      "inputs": [
        {
          "internalType": "address",
          "name": "spender",
          "type": "address"
        },
        {
          "internalType": "uint256",
          "name": "subtractedValue",
          "type": "uint256"
        }
      ],
      "name": "decreaseAllowance",
      "outputs": [
        {
          "internalType": "bool",
          "name": "",
          "type": "bool"
        }
      ],
      "stateMutability": "nonpayable",
      "type": "function"
    },
    {
      "inputs": [
        {
          "internalType": "string",
          "name": "uniqueID",
          "type": "string"
        }
      ],
      "name": "deregister",
      "outputs": [],
      "stateMutability": "nonpayable",
      "type": "function"
    },
    {
      "inputs": [],
      "name": "getAddresstoID",
      "outputs": [
        {
          "internalType": "string",
          "name": "",
          "type": "string"
        }
      ],
      "stateMutability": "view",
      "type": "function"
    },
    {
      "inputs": [
        {
          "internalType": "string",
          "name": "uniqueID",
          "type": "string"
        }
      ],
      "name": "getIDtoCompany",
      "outputs": [
        {
          "components": [
            {
              "internalType": "address",
              "name": "companyAddress",
              "type": "address"
            },
            {
              "internalType": "uint256",
              "name": "registrationTime",
              "type": "uint256"
            },
            {
              "internalType": "enum Chemotronix.subStatus",
              "name": "sub",
              "type": "uint8"
            },
            {
              "internalType": "enum Chemotronix.industryTypes",
              "name": "industry",
              "type": "uint8"
            }
          ],
          "internalType": "struct Chemotronix.company",
          "name": "",
          "type": "tuple"
        }
      ],
      "stateMutability": "view",
      "type": "function"
    },
    {
      "inputs": [
        {
          "internalType": "string",
          "name": "uniqueID",
          "type": "string"
        }
      ],
      "name": "getIndustryType",
      "outputs": [
        {
          "internalType": "enum Chemotronix.industryTypes",
          "name": "",
          "type": "uint8"
        }
      ],
      "stateMutability": "view",
      "type": "function"
    },
    {
      "inputs": [
        {
          "internalType": "address",
          "name": "spender",
          "type": "address"
        },
        {
          "internalType": "uint256",
          "name": "addedValue",
          "type": "uint256"
        }
      ],
      "name": "increaseAllowance",
      "outputs": [
        {
          "internalType": "bool",
          "name": "",
          "type": "bool"
        }
      ],
      "stateMutability": "nonpayable",
      "type": "function"
    },
    {
      "inputs": [],
      "name": "name",
      "outputs": [
        {
          "internalType": "string",
          "name": "",
          "type": "string"
        }
      ],
      "stateMutability": "view",
      "type": "function"
    },
    {
      "inputs": [
        {
          "internalType": "uint256",
          "name": "weight",
          "type": "uint256"
        },
        {
          "internalType": "string",
          "name": "uniqueID",
          "type": "string"
        }
      ],
      "name": "offset",
      "outputs": [],
      "stateMutability": "nonpayable",
      "type": "function"
    },
    {
      "inputs": [
        {
          "internalType": "string",
          "name": "uniqueID",
          "type": "string"
        },
        {
          "internalType": "enum Chemotronix.industryTypes",
          "name": "industry",
          "type": "uint8"
        }
      ],
      "name": "register",
      "outputs": [],
      "stateMutability": "payable",
      "type": "function"
    },
    {
      "inputs": [
        {
          "internalType": "string",
          "name": "uniqueID",
          "type": "string"
        }
      ],
      "name": "renewRegistration",
      "outputs": [],
      "stateMutability": "payable",
      "type": "function"
    },
    {
      "inputs": [],
      "name": "symbol",
      "outputs": [
        {
          "internalType": "string",
          "name": "",
          "type": "string"
        }
      ],
      "stateMutability": "view",
      "type": "function"
    },
    {
      "inputs": [],
      "name": "tokenAnnualSupply",
      "outputs": [],
      "stateMutability": "nonpayable",
      "type": "function"
    },
    {
      "inputs": [],
      "name": "totalSupply",
      "outputs": [
        {
          "internalType": "uint256",
          "name": "",
          "type": "uint256"
        }
      ],
      "stateMutability": "view",
      "type": "function"
    },
    {
      "inputs": [
        {
          "internalType": "address",
          "name": "to",
          "type": "address"
        },
        {
          "internalType": "uint256",
          "name": "amount",
          "type": "uint256"
        }
      ],
      "name": "transfer",
      "outputs": [
        {
          "internalType": "bool",
          "name": "",
          "type": "bool"
        }
      ],
      "stateMutability": "nonpayable",
      "type": "function"
    },
    {
      "inputs": [
        {
          "internalType": "address",
          "name": "from",
          "type": "address"
        },
        {
          "internalType": "address",
          "name": "to",
          "type": "address"
        },
        {
          "internalType": "uint256",
          "name": "amount",
          "type": "uint256"
        }
      ],
      "name": "transferFrom",
      "outputs": [
        {
          "internalType": "bool",
          "name": "",
          "type": "bool"
        }
      ],
      "stateMutability": "nonpayable",
      "type": "function"
    },
    {
      "inputs": [
        {
          "internalType": "uint256",
          "name": "amount",
          "type": "uint256"
        }
      ],
      "name": "withdrawEarnings",
      "outputs": [],
      "stateMutability": "nonpayable",
      "type": "function"
    }
  ],
  "bytecode": "0x60806040526040518060a00160405280670de0b6b3a764000067ffffffffffffffff168152602001670a688906bd8b000067ffffffffffffffff1681526020016706f05b59d3b2000067ffffffffffffffff1681526020016703782dace9d9000067ffffffffffffffff16815260200167016345785d8a000067ffffffffffffffff168152506006906005620000979291906200017f565b50348015620000a557600080fd5b506040518060400160405280600b81526020017f4368656d6f74726f6e69780000000000000000000000000000000000000000008152506040518060400160405280600381526020017f434d580000000000000000000000000000000000000000000000000000000000815250816003908162000123919062000469565b50806004908162000135919062000469565b50505033600560006101000a81548173ffffffffffffffffffffffffffffffffffffffff021916908373ffffffffffffffffffffffffffffffffffffffff16021790555062000550565b8260058101928215620001bd579160200282015b82811115620001bc578251829067ffffffffffffffff1690559160200191906001019062000193565b5b509050620001cc9190620001d0565b5090565b5b80821115620001eb576000816000905550600101620001d1565b5090565b600081519050919050565b7f4e487b7100000000000000000000000000000000000000000000000000000000600052604160045260246000fd5b7f4e487b7100000000000000000000000000000000000000000000000000000000600052602260045260246000fd5b600060028204905060018216806200027157607f821691505b60208210810362000287576200028662000229565b5b50919050565b60008190508160005260206000209050919050565b60006020601f8301049050919050565b600082821b905092915050565b600060088302620002f17fffffffffffffffffffffffffffffffffffffffffffffffffffffffffffffffff82620002b2565b620002fd8683620002b2565b95508019841693508086168417925050509392505050565b6000819050919050565b6000819050919050565b60006200034a620003446200033e8462000315565b6200031f565b62000315565b9050919050565b6000819050919050565b620003668362000329565b6200037e620003758262000351565b848454620002bf565b825550505050565b600090565b6200039562000386565b620003a28184846200035b565b505050565b5b81811015620003ca57620003be6000826200038b565b600181019050620003a8565b5050565b601f8211156200041957620003e3816200028d565b620003ee84620002a2565b81016020851015620003fe578190505b620004166200040d85620002a2565b830182620003a7565b50505b505050565b600082821c905092915050565b60006200043e600019846008026200041e565b1980831691505092915050565b60006200045983836200042b565b9150826002028217905092915050565b6200047482620001ef565b67ffffffffffffffff81111562000490576200048f620001fa565b5b6200049c825462000258565b620004a9828285620003ce565b600060209050601f831160018114620004e15760008415620004cc578287015190505b620004d885826200044b565b86555062000548565b601f198416620004f1866200028d565b60005b828110156200051b57848901518255600182019150602085019450602081019050620004f4565b868310156200053b578489015162000537601f8916826200042b565b8355505b6001600288020188555050505b505050505050565b61390680620005606000396000f3fe6080604052600436106101815760003560e01c80636e70096e116100d157806395d89b411161008a578063dd62ed3e11610064578063dd62ed3e146105c6578063e5b7afaa14610603578063f282de2e1461062c578063f851a4401461065757610181565b806395d89b4114610521578063a457c2d71461054c578063a9059cbb1461058957610181565b80636e70096e146104205780637006f0b31461044957806370a0823114610460578063767b79ed1461049d5780637f5accc6146104b957806383889354146104e457610181565b8063313ce5671161013e5780633950935111610118578063395093511461032c5780633a9de743146103695780634c49476c146103a657806356c59188146103e357610181565b8063313ce567146102bc578063326b12da146102e757806333e449971461030357610181565b806306fdde0314610186578063095ea7b3146101b157806318160ddd146101ee57806318b7b0871461021957806323b872dd1461025657806325ae336914610293575b600080fd5b34801561019257600080fd5b5061019b610682565b6040516101a891906124cd565b60405180910390f35b3480156101bd57600080fd5b506101d860048036038101906101d39190612597565b610714565b6040516101e591906125f2565b60405180910390f35b3480156101fa57600080fd5b50610203610737565b604051610210919061261c565b60405180910390f35b34801561022557600080fd5b50610240600480360381019061023b919061276c565b610741565b60405161024d919061282c565b60405180910390f35b34801561026257600080fd5b5061027d60048036038101906102789190612847565b610779565b60405161028a91906125f2565b60405180910390f35b34801561029f57600080fd5b506102ba60048036038101906102b5919061289a565b6107a8565b005b3480156102c857600080fd5b506102d16107f7565b6040516102de9190612912565b60405180910390f35b61030160048036038101906102fc919061276c565b610800565b005b34801561030f57600080fd5b5061032a60048036038101906103259190612952565b610ac7565b005b34801561033857600080fd5b50610353600480360381019061034e9190612597565b610b87565b60405161036091906125f2565b60405180910390f35b34801561037557600080fd5b50610390600480360381019061038b919061276c565b610bbe565b60405161039d919061261c565b60405180910390f35b3480156103b257600080fd5b506103cd60048036038101906103c8919061276c565b610c4d565b6040516103da9190612a5c565b60405180910390f35b3480156103ef57600080fd5b5061040a6004803603810190610405919061276c565b610d5b565b6040516104179190612a86565b60405180910390f35b34801561042c57600080fd5b5061044760048036038101906104429190612aa1565b610ebe565b005b34801561045557600080fd5b5061045e61102a565b005b34801561046c57600080fd5b5061048760048036038101906104829190612ace565b611093565b604051610494919061261c565b60405180910390f35b6104b760048036038101906104b29190612afb565b6110db565b005b3480156104c557600080fd5b506104ce611633565b6040516104db91906124cd565b60405180910390f35b3480156104f057600080fd5b5061050b6004803603810190610506919061276c565b611702565b604051610518919061261c565b60405180910390f35b34801561052d57600080fd5b50610536611872565b60405161054391906124cd565b60405180910390f35b34801561055857600080fd5b50610573600480360381019061056e9190612597565b611904565b60405161058091906125f2565b60405180910390f35b34801561059557600080fd5b506105b060048036038101906105ab9190612597565b61197b565b6040516105bd91906125f2565b60405180910390f35b3480156105d257600080fd5b506105ed60048036038101906105e89190612b57565b61199e565b6040516105fa919061261c565b60405180910390f35b34801561060f57600080fd5b5061062a6004803603810190610625919061276c565b611a25565b005b34801561063857600080fd5b50610641611bad565b60405161064e919061261c565b60405180910390f35b34801561066357600080fd5b5061066c611bb5565b6040516106799190612bb8565b60405180910390f35b60606003805461069190612c02565b80601f01602080910402602001604051908101604052809291908181526020018280546106bd90612c02565b801561070a5780601f106106df5761010080835404028352916020019161070a565b820191906000526020600020905b8154815290600101906020018083116106ed57829003601f168201915b5050505050905090565b60008061071f611bdb565b905061072c818585611be3565b600191505092915050565b6000600254905090565b6000600b826040516107539190612c6f565b908152602001604051809103902060020160019054906101000a900460ff169050919050565b600080610784611bdb565b9050610791858285611dac565b61079c858585611e38565b60019150509392505050565b6107f3600b826040516107bb9190612c6f565b908152602001604051809103902060000160009054906101000a900473ffffffffffffffffffffffffffffffffffffffff16836120ae565b5050565b60006009905090565b80600180811115610814576108136127b5565b5b600b826040516108249190612c6f565b908152602001604051809103902060020160009054906101000a900460ff166001811115610855576108546127b5565b5b03610895576040517f08c379a000000000000000000000000000000000000000000000000000000000815260040161088c90612cd2565b60405180910390fd5b670de0b6b3a764000034146108df576040517f08c379a00000000000000000000000000000000000000000000000000000000081526004016108d690612d64565b60405180910390fd5b6000600b836040516108f19190612c6f565b90815260200160405180910390206040518060800160405290816000820160009054906101000a900473ffffffffffffffffffffffffffffffffffffffff1673ffffffffffffffffffffffffffffffffffffffff1673ffffffffffffffffffffffffffffffffffffffff168152602001600182015481526020016002820160009054906101000a900460ff16600181111561098f5761098e6127b5565b5b60018111156109a1576109a06127b5565b5b81526020016002820160019054906101000a900460ff1660048111156109ca576109c96127b5565b5b60048111156109dc576109db6127b5565b5b81525050905042816020018181525050600181604001906001811115610a0557610a046127b5565b5b90816001811115610a1957610a186127b5565b5b81525050610a568160000151600683606001516004811115610a3e57610a3d6127b5565b5b60058110610a4f57610a4e612d84565b5b015461227b565b806000015173ffffffffffffffffffffffffffffffffffffffff1683604051610a7f9190612c6f565b60405180910390207f8cffe85ee6cc0bf808d49d925d724c449d6a53769d3e3cf89618e73ad309c2a68360200151604051610aba919061261c565b60405180910390a3505050565b600560009054906101000a900473ffffffffffffffffffffffffffffffffffffffff1673ffffffffffffffffffffffffffffffffffffffff163373ffffffffffffffffffffffffffffffffffffffff1614610b57576040517f08c379a0000000000000000000000000000000000000000000000000000000008152600401610b4e90612e25565b60405180910390fd5b806006836004811115610b6d57610b6c6127b5565b5b60058110610b7e57610b7d612d84565b5b01819055505050565b600080610b92611bdb565b9050610bb3818585610ba4858961199e565b610bae9190612e74565b611be3565b600191505092915050565b600080610c0b600b84604051610bd49190612c6f565b908152602001604051809103902060000160009054906101000a900473ffffffffffffffffffffffffffffffffffffffff16611093565b90507f2a3c6efd94fec52c5d651b4ccf900494d393910533402b9bbd9d354d42e538a881604051610c3c919061261c565b60405180910390a180915050919050565b610c556123db565b600b82604051610c659190612c6f565b90815260200160405180910390206040518060800160405290816000820160009054906101000a900473ffffffffffffffffffffffffffffffffffffffff1673ffffffffffffffffffffffffffffffffffffffff1673ffffffffffffffffffffffffffffffffffffffff168152602001600182015481526020016002820160009054906101000a900460ff166001811115610d0357610d026127b5565b5b6001811115610d1557610d146127b5565b5b81526020016002820160019054906101000a900460ff166004811115610d3e57610d3d6127b5565b5b6004811115610d5057610d4f6127b5565b5b815250509050919050565b600081600b81604051610d6e9190612c6f565b908152602001604051809103902060000160009054906101000a900473ffffffffffffffffffffffffffffffffffffffff1673ffffffffffffffffffffffffffffffffffffffff163373ffffffffffffffffffffffffffffffffffffffff161480610e265750600560009054906101000a900473ffffffffffffffffffffffffffffffffffffffff1673ffffffffffffffffffffffffffffffffffffffff163373ffffffffffffffffffffffffffffffffffffffff16145b80610e7e5750600560009054906101000a900473ffffffffffffffffffffffffffffffffffffffff1673ffffffffffffffffffffffffffffffffffffffff163373ffffffffffffffffffffffffffffffffffffffff16145b610e8757600080fd5b600b83604051610e979190612c6f565b908152602001604051809103902060020160009054906101000a900460ff16915050919050565b600560009054906101000a900473ffffffffffffffffffffffffffffffffffffffff1673ffffffffffffffffffffffffffffffffffffffff163373ffffffffffffffffffffffffffffffffffffffff1614610f4e576040517f08c379a0000000000000000000000000000000000000000000000000000000008152600401610f4590612e25565b60405180910390fd5b600560009054906101000a900473ffffffffffffffffffffffffffffffffffffffff1673ffffffffffffffffffffffffffffffffffffffff166108fc829081150290604051600060405180830381858888f19350505050158015610fb6573d6000803e3d6000fd5b50600560009054906101000a900473ffffffffffffffffffffffffffffffffffffffff1673ffffffffffffffffffffffffffffffffffffffff167f3a565aa1aa10e8ea1c6d12af2b2fe7f8bbda86d9a7e36aa3af12a8a96563761d8260405161101f919061261c565b60405180910390a250565b60005b600581101561109057600a6006826005811061104c5761104b612d84565b5b0154600961105a9190612ea8565b6110649190612f19565b6006826005811061107857611077612d84565b5b0181905550808061108890612f4a565b91505061102d565b50565b60008060008373ffffffffffffffffffffffffffffffffffffffff1673ffffffffffffffffffffffffffffffffffffffff168152602001908152602001600020549050919050565b816001808111156110ef576110ee6127b5565b5b600b826040516110ff9190612c6f565b908152602001604051809103902060020160009054906101000a900460ff1660018111156111305761112f6127b5565b5b03611170576040517f08c379a000000000000000000000000000000000000000000000000000000000815260040161116790612cd2565b60405180910390fd5b670de0b6b3a764000034146111ba576040517f08c379a00000000000000000000000000000000000000000000000000000000081526004016111b190612d64565b60405180910390fd5b600c836040516111ca9190612c6f565b908152602001604051809103902060009054906101000a900460ff1615611226576040517f08c379a000000000000000000000000000000000000000000000000000000000815260040161121d90613004565b60405180910390fd5b60405180608001604052803373ffffffffffffffffffffffffffffffffffffffff168152602001428152602001600180811115611266576112656127b5565b5b815260200183600481111561127e5761127d6127b5565b5b815250600b846040516112919190612c6f565b908152602001604051809103902060008201518160000160006101000a81548173ffffffffffffffffffffffffffffffffffffffff021916908373ffffffffffffffffffffffffffffffffffffffff1602179055506020820151816001015560408201518160020160006101000a81548160ff0219169083600181111561131b5761131a6127b5565b5b021790555060608201518160020160016101000a81548160ff0219169083600481111561134b5761134a6127b5565b5b02179055509050506000600b846040516113659190612c6f565b90815260200160405180910390206040518060800160405290816000820160009054906101000a900473ffffffffffffffffffffffffffffffffffffffff1673ffffffffffffffffffffffffffffffffffffffff1673ffffffffffffffffffffffffffffffffffffffff168152602001600182015481526020016002820160009054906101000a900460ff166001811115611403576114026127b5565b5b6001811115611415576114146127b5565b5b81526020016002820160019054906101000a900460ff16600481111561143e5761143d6127b5565b5b60048111156114505761144f6127b5565b5b81525050905083600d60003373ffffffffffffffffffffffffffffffffffffffff1673ffffffffffffffffffffffffffffffffffffffff16815260200190815260200160002090816114a291906131d0565b506001600c856040516114b59190612c6f565b908152602001604051809103902060006101000a81548160ff02191690831515021790555061150f816000015160068560048111156114f7576114f66127b5565b5b6005811061150857611507612d84565b5b015461227b565b806000015173ffffffffffffffffffffffffffffffffffffffff16846040516115389190612c6f565b60405180910390207f8cffe85ee6cc0bf808d49d925d724c449d6a53769d3e3cf89618e73ad309c2a68360200151604051611573919061261c565b60405180910390a3806000015173ffffffffffffffffffffffffffffffffffffffff16600560009054906101000a900473ffffffffffffffffffffffffffffffffffffffff1673ffffffffffffffffffffffffffffffffffffffff167fddf252ad1be2c89b69c2b068fc378daa952ba7f163c4a11628f55a4df523b3ef6006866004811115611605576116046127b5565b5b6005811061161657611615612d84565b5b0154604051611625919061261c565b60405180910390a350505050565b6060600d60003373ffffffffffffffffffffffffffffffffffffffff1673ffffffffffffffffffffffffffffffffffffffff168152602001908152602001600020805461167f90612c02565b80601f01602080910402602001604051908101604052809291908181526020018280546116ab90612c02565b80156116f85780601f106116cd576101008083540402835291602001916116f8565b820191906000526020600020905b8154815290600101906020018083116116db57829003601f168201915b5050505050905090565b600081600b816040516117159190612c6f565b908152602001604051809103902060000160009054906101000a900473ffffffffffffffffffffffffffffffffffffffff1673ffffffffffffffffffffffffffffffffffffffff163373ffffffffffffffffffffffffffffffffffffffff1614806117cd5750600560009054906101000a900473ffffffffffffffffffffffffffffffffffffffff1673ffffffffffffffffffffffffffffffffffffffff163373ffffffffffffffffffffffffffffffffffffffff16145b806118255750600560009054906101000a900473ffffffffffffffffffffffffffffffffffffffff1673ffffffffffffffffffffffffffffffffffffffff163373ffffffffffffffffffffffffffffffffffffffff16145b61182e57600080fd5b600b8360405161183e9190612c6f565b9081526020016040518091039020600101544261185b91906132a2565b6301e1338061186a91906132a2565b915050919050565b60606004805461188190612c02565b80601f01602080910402602001604051908101604052809291908181526020018280546118ad90612c02565b80156118fa5780601f106118cf576101008083540402835291602001916118fa565b820191906000526020600020905b8154815290600101906020018083116118dd57829003601f168201915b5050505050905090565b60008061190f611bdb565b9050600061191d828661199e565b905083811015611962576040517f08c379a000000000000000000000000000000000000000000000000000000000815260040161195990613348565b60405180910390fd5b61196f8286868403611be3565b60019250505092915050565b600080611986611bdb565b9050611993818585611e38565b600191505092915050565b6000600160008473ffffffffffffffffffffffffffffffffffffffff1673ffffffffffffffffffffffffffffffffffffffff16815260200190815260200160002060008373ffffffffffffffffffffffffffffffffffffffff1673ffffffffffffffffffffffffffffffffffffffff16815260200190815260200160002054905092915050565b600560009054906101000a900473ffffffffffffffffffffffffffffffffffffffff1673ffffffffffffffffffffffffffffffffffffffff163373ffffffffffffffffffffffffffffffffffffffff1614611ab5576040517f08c379a0000000000000000000000000000000000000000000000000000000008152600401611aac90612e25565b60405180910390fd5b80600180811115611ac957611ac86127b5565b5b600b82604051611ad99190612c6f565b908152602001604051809103902060020160009054906101000a900460ff166001811115611b0a57611b096127b5565b5b14611b1457600080fd5b6000611b1f83611702565b14611b5f576040517f08c379a0000000000000000000000000000000000000000000000000000000008152600401611b56906133da565b60405180910390fd5b6000600b83604051611b719190612c6f565b908152602001604051809103902060020160006101000a81548160ff02191690836001811115611ba457611ba36127b5565b5b02179055505050565b600047905090565b600560009054906101000a900473ffffffffffffffffffffffffffffffffffffffff1681565b600033905090565b600073ffffffffffffffffffffffffffffffffffffffff168373ffffffffffffffffffffffffffffffffffffffff1603611c52576040517f08c379a0000000000000000000000000000000000000000000000000000000008152600401611c499061346c565b60405180910390fd5b600073ffffffffffffffffffffffffffffffffffffffff168273ffffffffffffffffffffffffffffffffffffffff1603611cc1576040517f08c379a0000000000000000000000000000000000000000000000000000000008152600401611cb8906134fe565b60405180910390fd5b80600160008573ffffffffffffffffffffffffffffffffffffffff1673ffffffffffffffffffffffffffffffffffffffff16815260200190815260200160002060008473ffffffffffffffffffffffffffffffffffffffff1673ffffffffffffffffffffffffffffffffffffffff168152602001908152602001600020819055508173ffffffffffffffffffffffffffffffffffffffff168373ffffffffffffffffffffffffffffffffffffffff167f8c5be1e5ebec7d5bd14f71427d1e84f3dd0314c0f7b2291e5b200ac8c7c3b92583604051611d9f919061261c565b60405180910390a3505050565b6000611db8848461199e565b90507fffffffffffffffffffffffffffffffffffffffffffffffffffffffffffffffff8114611e325781811015611e24576040517f08c379a0000000000000000000000000000000000000000000000000000000008152600401611e1b9061356a565b60405180910390fd5b611e318484848403611be3565b5b50505050565b600073ffffffffffffffffffffffffffffffffffffffff168373ffffffffffffffffffffffffffffffffffffffff1603611ea7576040517f08c379a0000000000000000000000000000000000000000000000000000000008152600401611e9e906135fc565b60405180910390fd5b600073ffffffffffffffffffffffffffffffffffffffff168273ffffffffffffffffffffffffffffffffffffffff1603611f16576040517f08c379a0000000000000000000000000000000000000000000000000000000008152600401611f0d9061368e565b60405180910390fd5b611f218383836123d1565b60008060008573ffffffffffffffffffffffffffffffffffffffff1673ffffffffffffffffffffffffffffffffffffffff16815260200190815260200160002054905081811015611fa7576040517f08c379a0000000000000000000000000000000000000000000000000000000008152600401611f9e90613720565b60405180910390fd5b8181036000808673ffffffffffffffffffffffffffffffffffffffff1673ffffffffffffffffffffffffffffffffffffffff16815260200190815260200160002081905550816000808573ffffffffffffffffffffffffffffffffffffffff1673ffffffffffffffffffffffffffffffffffffffff168152602001908152602001600020600082825401925050819055508273ffffffffffffffffffffffffffffffffffffffff168473ffffffffffffffffffffffffffffffffffffffff167fddf252ad1be2c89b69c2b068fc378daa952ba7f163c4a11628f55a4df523b3ef84604051612095919061261c565b60405180910390a36120a88484846123d6565b50505050565b600073ffffffffffffffffffffffffffffffffffffffff168273ffffffffffffffffffffffffffffffffffffffff160361211d576040517f08c379a0000000000000000000000000000000000000000000000000000000008152600401612114906137b2565b60405180910390fd5b612129826000836123d1565b60008060008473ffffffffffffffffffffffffffffffffffffffff1673ffffffffffffffffffffffffffffffffffffffff168152602001908152602001600020549050818110156121af576040517f08c379a00000000000000000000000000000000000000000000000000000000081526004016121a690613844565b60405180910390fd5b8181036000808573ffffffffffffffffffffffffffffffffffffffff1673ffffffffffffffffffffffffffffffffffffffff1681526020019081526020016000208190555081600260008282540392505081905550600073ffffffffffffffffffffffffffffffffffffffff168373ffffffffffffffffffffffffffffffffffffffff167fddf252ad1be2c89b69c2b068fc378daa952ba7f163c4a11628f55a4df523b3ef84604051612262919061261c565b60405180910390a3612276836000846123d6565b505050565b600073ffffffffffffffffffffffffffffffffffffffff168273ffffffffffffffffffffffffffffffffffffffff16036122ea576040517f08c379a00000000000000000000000000000000000000000000000000000000081526004016122e1906138b0565b60405180910390fd5b6122f6600083836123d1565b80600260008282546123089190612e74565b92505081905550806000808473ffffffffffffffffffffffffffffffffffffffff1673ffffffffffffffffffffffffffffffffffffffff168152602001908152602001600020600082825401925050819055508173ffffffffffffffffffffffffffffffffffffffff16600073ffffffffffffffffffffffffffffffffffffffff167fddf252ad1be2c89b69c2b068fc378daa952ba7f163c4a11628f55a4df523b3ef836040516123b9919061261c565b60405180910390a36123cd600083836123d6565b5050565b505050565b505050565b6040518060800160405280600073ffffffffffffffffffffffffffffffffffffffff168152602001600081526020016000600181111561241e5761241d6127b5565b5b815260200160006004811115612437576124366127b5565b5b81525090565b600081519050919050565b600082825260208201905092915050565b60005b8381101561247757808201518184015260208101905061245c565b60008484015250505050565b6000601f19601f8301169050919050565b600061249f8261243d565b6124a98185612448565b93506124b9818560208601612459565b6124c281612483565b840191505092915050565b600060208201905081810360008301526124e78184612494565b905092915050565b6000604051905090565b600080fd5b600080fd5b600073ffffffffffffffffffffffffffffffffffffffff82169050919050565b600061252e82612503565b9050919050565b61253e81612523565b811461254957600080fd5b50565b60008135905061255b81612535565b92915050565b6000819050919050565b61257481612561565b811461257f57600080fd5b50565b6000813590506125918161256b565b92915050565b600080604083850312156125ae576125ad6124f9565b5b60006125bc8582860161254c565b92505060206125cd85828601612582565b9150509250929050565b60008115159050919050565b6125ec816125d7565b82525050565b600060208201905061260760008301846125e3565b92915050565b61261681612561565b82525050565b6000602082019050612631600083018461260d565b92915050565b600080fd5b600080fd5b7f4e487b7100000000000000000000000000000000000000000000000000000000600052604160045260246000fd5b61267982612483565b810181811067ffffffffffffffff8211171561269857612697612641565b5b80604052505050565b60006126ab6124ef565b90506126b78282612670565b919050565b600067ffffffffffffffff8211156126d7576126d6612641565b5b6126e082612483565b9050602081019050919050565b82818337600083830152505050565b600061270f61270a846126bc565b6126a1565b90508281526020810184848401111561272b5761272a61263c565b5b6127368482856126ed565b509392505050565b600082601f83011261275357612752612637565b5b81356127638482602086016126fc565b91505092915050565b600060208284031215612782576127816124f9565b5b600082013567ffffffffffffffff8111156127a05761279f6124fe565b5b6127ac8482850161273e565b91505092915050565b7f4e487b7100000000000000000000000000000000000000000000000000000000600052602160045260246000fd5b600581106127f5576127f46127b5565b5b50565b6000819050612806826127e4565b919050565b6000612816826127f8565b9050919050565b6128268161280b565b82525050565b6000602082019050612841600083018461281d565b92915050565b6000806000606084860312156128605761285f6124f9565b5b600061286e8682870161254c565b935050602061287f8682870161254c565b925050604061289086828701612582565b9150509250925092565b600080604083850312156128b1576128b06124f9565b5b60006128bf85828601612582565b925050602083013567ffffffffffffffff8111156128e0576128df6124fe565b5b6128ec8582860161273e565b9150509250929050565b600060ff82169050919050565b61290c816128f6565b82525050565b60006020820190506129276000830184612903565b92915050565b6005811061293a57600080fd5b50565b60008135905061294c8161292d565b92915050565b60008060408385031215612969576129686124f9565b5b60006129778582860161293d565b925050602061298885828601612582565b9150509250929050565b61299b81612523565b82525050565b6129aa81612561565b82525050565b600281106129c1576129c06127b5565b5b50565b60008190506129d2826129b0565b919050565b60006129e2826129c4565b9050919050565b6129f2816129d7565b82525050565b612a018161280b565b82525050565b608082016000820151612a1d6000850182612992565b506020820151612a3060208501826129a1565b506040820151612a4360408501826129e9565b506060820151612a5660608501826129f8565b50505050565b6000608082019050612a716000830184612a07565b92915050565b612a80816129d7565b82525050565b6000602082019050612a9b6000830184612a77565b92915050565b600060208284031215612ab757612ab66124f9565b5b6000612ac584828501612582565b91505092915050565b600060208284031215612ae457612ae36124f9565b5b6000612af28482850161254c565b91505092915050565b60008060408385031215612b1257612b116124f9565b5b600083013567ffffffffffffffff811115612b3057612b2f6124fe565b5b612b3c8582860161273e565b9250506020612b4d8582860161293d565b9150509250929050565b60008060408385031215612b6e57612b6d6124f9565b5b6000612b7c8582860161254c565b9250506020612b8d8582860161254c565b9150509250929050565b6000612ba282612503565b9050919050565b612bb281612b97565b82525050565b6000602082019050612bcd6000830184612ba9565b92915050565b7f4e487b7100000000000000000000000000000000000000000000000000000000600052602260045260246000fd5b60006002820490506001821680612c1a57607f821691505b602082108103612c2d57612c2c612bd3565b5b50919050565b600081905092915050565b6000612c498261243d565b612c538185612c33565b9350612c63818560208601612459565b80840191505092915050565b6000612c7b8284612c3e565b915081905092915050565b7f4120636f6d70616e792077697468207468697300000000000000000000000000600082015250565b6000612cbc601383612448565b9150612cc782612c86565b602082019050919050565b60006020820190508181036000830152612ceb81612caf565b9050919050565b7f596f7520646f206e6f7420686176652074686520636f7272656374207265676960008201527f7374726174696f6e206665650000000000000000000000000000000000000000602082015250565b6000612d4e602c83612448565b9150612d5982612cf2565b604082019050919050565b60006020820190508181036000830152612d7d81612d41565b9050919050565b7f4e487b7100000000000000000000000000000000000000000000000000000000600052603260045260246000fd5b7f596f7520646f206e6f742068617665207065726d697373696f6e20746f20636160008201527f6c6c20746869732066756e6374696f6e00000000000000000000000000000000602082015250565b6000612e0f603083612448565b9150612e1a82612db3565b604082019050919050565b60006020820190508181036000830152612e3e81612e02565b9050919050565b7f4e487b7100000000000000000000000000000000000000000000000000000000600052601160045260246000fd5b6000612e7f82612561565b9150612e8a83612561565b9250828201905080821115612ea257612ea1612e45565b5b92915050565b6000612eb382612561565b9150612ebe83612561565b9250828202612ecc81612561565b91508282048414831517612ee357612ee2612e45565b5b5092915050565b7f4e487b7100000000000000000000000000000000000000000000000000000000600052601260045260246000fd5b6000612f2482612561565b9150612f2f83612561565b925082612f3f57612f3e612eea565b5b828204905092915050565b6000612f5582612561565b91507fffffffffffffffffffffffffffffffffffffffffffffffffffffffffffffffff8203612f8757612f86612e45565b5b600182019050919050565b7f54686520496f54206465766963652068617320616c7265616479206265656e2060008201527f7265676973746572656400000000000000000000000000000000000000000000602082015250565b6000612fee602a83612448565b9150612ff982612f92565b604082019050919050565b6000602082019050818103600083015261301d81612fe1565b9050919050565b60008190508160005260206000209050919050565b60006020601f8301049050919050565b600082821b905092915050565b6000600883026130867fffffffffffffffffffffffffffffffffffffffffffffffffffffffffffffffff82613049565b6130908683613049565b95508019841693508086168417925050509392505050565b6000819050919050565b60006130cd6130c86130c384612561565b6130a8565b612561565b9050919050565b6000819050919050565b6130e7836130b2565b6130fb6130f3826130d4565b848454613056565b825550505050565b600090565b613110613103565b61311b8184846130de565b505050565b5b8181101561313f57613134600082613108565b600181019050613121565b5050565b601f8211156131845761315581613024565b61315e84613039565b8101602085101561316d578190505b61318161317985613039565b830182613120565b50505b505050565b600082821c905092915050565b60006131a760001984600802613189565b1980831691505092915050565b60006131c08383613196565b9150826002028217905092915050565b6131d98261243d565b67ffffffffffffffff8111156131f2576131f1612641565b5b6131fc8254612c02565b613207828285613143565b600060209050601f83116001811461323a5760008415613228578287015190505b61323285826131b4565b86555061329a565b601f19841661324886613024565b60005b828110156132705784890151825560018201915060208501945060208101905061324b565b8683101561328d5784890151613289601f891682613196565b8355505b6001600288020188555050505b505050505050565b60006132ad82612561565b91506132b883612561565b92508282039050818111156132d0576132cf612e45565b5b92915050565b7f45524332303a2064656372656173656420616c6c6f77616e63652062656c6f7760008201527f207a65726f000000000000000000000000000000000000000000000000000000602082015250565b6000613332602583612448565b915061333d826132d6565b604082019050919050565b6000602082019050818103600083015261336181613325565b9050919050565b7f436f6d70616e792063616e6e6f7420626520646572656769737465726564207960008201527f6574000000000000000000000000000000000000000000000000000000000000602082015250565b60006133c4602283612448565b91506133cf82613368565b604082019050919050565b600060208201905081810360008301526133f3816133b7565b9050919050565b7f45524332303a20617070726f76652066726f6d20746865207a65726f2061646460008201527f7265737300000000000000000000000000000000000000000000000000000000602082015250565b6000613456602483612448565b9150613461826133fa565b604082019050919050565b6000602082019050818103600083015261348581613449565b9050919050565b7f45524332303a20617070726f766520746f20746865207a65726f20616464726560008201527f7373000000000000000000000000000000000000000000000000000000000000602082015250565b60006134e8602283612448565b91506134f38261348c565b604082019050919050565b60006020820190508181036000830152613517816134db565b9050919050565b7f45524332303a20696e73756666696369656e7420616c6c6f77616e6365000000600082015250565b6000613554601d83612448565b915061355f8261351e565b602082019050919050565b6000602082019050818103600083015261358381613547565b9050919050565b7f45524332303a207472616e736665722066726f6d20746865207a65726f20616460008201527f6472657373000000000000000000000000000000000000000000000000000000602082015250565b60006135e6602583612448565b91506135f18261358a565b604082019050919050565b60006020820190508181036000830152613615816135d9565b9050919050565b7f45524332303a207472616e7366657220746f20746865207a65726f206164647260008201527f6573730000000000000000000000000000000000000000000000000000000000602082015250565b6000613678602383612448565b91506136838261361c565b604082019050919050565b600060208201905081810360008301526136a78161366b565b9050919050565b7f45524332303a207472616e7366657220616d6f756e742065786365656473206260008201527f616c616e63650000000000000000000000000000000000000000000000000000602082015250565b600061370a602683612448565b9150613715826136ae565b604082019050919050565b60006020820190508181036000830152613739816136fd565b9050919050565b7f45524332303a206275726e2066726f6d20746865207a65726f2061646472657360008201527f7300000000000000000000000000000000000000000000000000000000000000602082015250565b600061379c602183612448565b91506137a782613740565b604082019050919050565b600060208201905081810360008301526137cb8161378f565b9050919050565b7f45524332303a206275726e20616d6f756e7420657863656564732062616c616e60008201527f6365000000000000000000000000000000000000000000000000000000000000602082015250565b600061382e602283612448565b9150613839826137d2565b604082019050919050565b6000602082019050818103600083015261385d81613821565b9050919050565b7f45524332303a206d696e7420746f20746865207a65726f206164647265737300600082015250565b600061389a601f83612448565b91506138a582613864565b602082019050919050565b600060208201905081810360008301526138c98161388d565b905091905056fea2646970667358221220e4a46b5dc952052e25be9d26abc889aee1179d84026e163de7e06f40ab91ff8d64736f6c63430008110033",
  "linkReferences": {},
  "deployedLinkReferences": {}
}